{
  "_format": "hh-sol-artifact-1",
  "contractName": "ERC721Minter",
  "sourceName": "contracts/ERC721Minter.sol",
  "abi": [
    {
      "inputs": [
        {
          "internalType": "contract IERC721",
          "name": "_nftContract",
          "type": "address"
        },
        {
          "internalType": "contract IERC20",
          "name": "_tokenContract",
          "type": "address"
        },
        {
          "internalType": "uint256",
          "name": "_mintFeeHolder",
          "type": "uint256"
        },
        {
          "internalType": "uint256",
          "name": "_mintFeePublic",
          "type": "uint256"
        }
      ],
      "stateMutability": "nonpayable",
      "type": "constructor"
    },
    {
      "inputs": [],
      "name": "AccessControlBadConfirmation",
      "type": "error"
    },
    {
      "inputs": [
        {
          "internalType": "address",
          "name": "account",
          "type": "address"
        },
        {
          "internalType": "bytes32",
          "name": "neededRole",
          "type": "bytes32"
        }
      ],
      "name": "AccessControlUnauthorizedAccount",
      "type": "error"
    },
    {
      "anonymous": false,
      "inputs": [
        {
          "indexed": true,
          "internalType": "bytes32",
          "name": "role",
          "type": "bytes32"
        },
        {
          "indexed": true,
          "internalType": "bytes32",
          "name": "previousAdminRole",
          "type": "bytes32"
        },
        {
          "indexed": true,
          "internalType": "bytes32",
          "name": "newAdminRole",
          "type": "bytes32"
        }
      ],
      "name": "RoleAdminChanged",
      "type": "event"
    },
    {
      "anonymous": false,
      "inputs": [
        {
          "indexed": true,
          "internalType": "bytes32",
          "name": "role",
          "type": "bytes32"
        },
        {
          "indexed": true,
          "internalType": "address",
          "name": "account",
          "type": "address"
        },
        {
          "indexed": true,
          "internalType": "address",
          "name": "sender",
          "type": "address"
        }
      ],
      "name": "RoleGranted",
      "type": "event"
    },
    {
      "anonymous": false,
      "inputs": [
        {
          "indexed": true,
          "internalType": "bytes32",
          "name": "role",
          "type": "bytes32"
        },
        {
          "indexed": true,
          "internalType": "address",
          "name": "account",
          "type": "address"
        },
        {
          "indexed": true,
          "internalType": "address",
          "name": "sender",
          "type": "address"
        }
      ],
      "name": "RoleRevoked",
      "type": "event"
    },
    {
      "inputs": [],
      "name": "DEFAULT_ADMIN_ROLE",
      "outputs": [
        {
          "internalType": "bytes32",
          "name": "",
          "type": "bytes32"
        }
      ],
      "stateMutability": "view",
      "type": "function"
    },
    {
      "inputs": [
        {
          "internalType": "bytes32",
          "name": "role",
          "type": "bytes32"
        }
      ],
      "name": "getRoleAdmin",
      "outputs": [
        {
          "internalType": "bytes32",
          "name": "",
          "type": "bytes32"
        }
      ],
      "stateMutability": "view",
      "type": "function"
    },
    {
      "inputs": [
        {
          "internalType": "bytes32",
          "name": "role",
          "type": "bytes32"
        },
        {
          "internalType": "address",
          "name": "account",
          "type": "address"
        }
      ],
      "name": "grantRole",
      "outputs": [],
      "stateMutability": "nonpayable",
      "type": "function"
    },
    {
      "inputs": [
        {
          "internalType": "bytes32",
          "name": "role",
          "type": "bytes32"
        },
        {
          "internalType": "address",
          "name": "account",
          "type": "address"
        }
      ],
      "name": "hasRole",
      "outputs": [
        {
          "internalType": "bool",
          "name": "",
          "type": "bool"
        }
      ],
      "stateMutability": "view",
      "type": "function"
    },
    {
      "inputs": [],
      "name": "minHoldings",
      "outputs": [
        {
          "internalType": "uint256",
          "name": "",
          "type": "uint256"
        }
      ],
      "stateMutability": "view",
      "type": "function"
    },
    {
      "inputs": [
        {
          "internalType": "address",
          "name": "_to",
          "type": "address"
        }
      ],
      "name": "mint",
      "outputs": [],
      "stateMutability": "payable",
      "type": "function"
    },
    {
      "inputs": [
        {
          "internalType": "address",
          "name": "_to",
          "type": "address"
        },
        {
          "internalType": "uint256",
          "name": "_count",
          "type": "uint256"
        }
      ],
      "name": "mintBatch",
      "outputs": [],
      "stateMutability": "payable",
      "type": "function"
    },
    {
      "inputs": [],
      "name": "mintFeeHolder",
      "outputs": [
        {
          "internalType": "uint256",
          "name": "",
          "type": "uint256"
        }
      ],
      "stateMutability": "view",
      "type": "function"
    },
    {
      "inputs": [],
      "name": "mintFeePublic",
      "outputs": [
        {
          "internalType": "uint256",
          "name": "",
          "type": "uint256"
        }
      ],
      "stateMutability": "view",
      "type": "function"
    },
    {
      "inputs": [],
      "name": "nftContract",
      "outputs": [
        {
          "internalType": "contract IERC721",
          "name": "",
          "type": "address"
        }
      ],
      "stateMutability": "view",
      "type": "function"
    },
    {
      "inputs": [],
      "name": "publicMintingEnabled",
      "outputs": [
        {
          "internalType": "bool",
          "name": "",
          "type": "bool"
        }
      ],
      "stateMutability": "view",
      "type": "function"
    },
    {
      "inputs": [
        {
          "internalType": "bytes32",
          "name": "role",
          "type": "bytes32"
        },
        {
          "internalType": "address",
          "name": "callerConfirmation",
          "type": "address"
        }
      ],
      "name": "renounceRole",
      "outputs": [],
      "stateMutability": "nonpayable",
      "type": "function"
    },
    {
      "inputs": [
        {
          "internalType": "bytes32",
          "name": "role",
          "type": "bytes32"
        },
        {
          "internalType": "address",
          "name": "account",
          "type": "address"
        }
      ],
      "name": "revokeRole",
      "outputs": [],
      "stateMutability": "nonpayable",
      "type": "function"
    },
    {
      "inputs": [
        {
          "internalType": "uint256",
          "name": "_minHoldings",
          "type": "uint256"
        }
      ],
      "name": "setMinHoldings",
      "outputs": [],
      "stateMutability": "nonpayable",
      "type": "function"
    },
    {
      "inputs": [
        {
          "internalType": "uint256",
          "name": "_mintFeeHolder",
          "type": "uint256"
        }
      ],
      "name": "setMintFeeHolder",
      "outputs": [],
      "stateMutability": "nonpayable",
      "type": "function"
    },
    {
      "inputs": [
        {
          "internalType": "uint256",
          "name": "_mintFeePublic",
          "type": "uint256"
        }
      ],
      "name": "setMintFeePublic",
      "outputs": [],
      "stateMutability": "nonpayable",
      "type": "function"
    },
    {
      "inputs": [],
      "name": "startPublicMint",
      "outputs": [],
      "stateMutability": "nonpayable",
      "type": "function"
    },
    {
      "inputs": [
        {
          "internalType": "bytes4",
          "name": "interfaceId",
          "type": "bytes4"
        }
      ],
      "name": "supportsInterface",
      "outputs": [
        {
          "internalType": "bool",
          "name": "",
          "type": "bool"
        }
      ],
      "stateMutability": "view",
      "type": "function"
    },
    {
      "inputs": [],
      "name": "tokenContract",
      "outputs": [
        {
          "internalType": "contract IERC20",
          "name": "",
          "type": "address"
        }
      ],
      "stateMutability": "view",
      "type": "function"
    }
  ],
  "bytecode": "0x608060405269152d02c7e14af680000060055534801561001e57600080fd5b50604051610e3d380380610e3d83398101604081905261003d91610150565b600380546001600160a01b038087166001600160a01b03199283161790925560018490556002839055600480549286169290911691909117905561008260003361008c565b5050505050610198565b6000828152602081815260408083206001600160a01b038516845290915281205460ff1661012e576000838152602081815260408083206001600160a01b03861684529091529020805460ff191660011790556100e63390565b6001600160a01b0316826001600160a01b0316847f2f8788117e7eff1d82e926ec794901d17c78024a50270940304540a733656f0d60405160405180910390a4506001610132565b5060005b92915050565b6001600160a01b038116811461014d57600080fd5b50565b6000806000806080858703121561016657600080fd5b845161017181610138565b602086015190945061018281610138565b6040860151606090960151949790965092505050565b610c96806101a76000396000f3fe6080604052600436106101445760003560e01c80636a627842116100c0578063a217fddf11610074578063b2db8f2a11610059578063b2db8f2a14610366578063d547741f14610386578063d56d229d146103a657600080fd5b8063a217fddf1461033b578063a57d06eb1461035057600080fd5b80638dec9f7a116100a55780638dec9f7a146102c757806391d14854146102e157806397c9e2d31461032557600080fd5b80636a6278421461029f57806376c64c62146102b257600080fd5b8063248b71fc116101175780632f2ff15d116100fc5780632f2ff15d1461022757806336568abe1461024757806355a373d61461026757600080fd5b8063248b71fc146101f457806327d7b5a31461020757600080fd5b806301ffc9a7146101495780632104d97e1461017e5780632414a82d146101a2578063248a9ca3146101c4575b600080fd5b34801561015557600080fd5b50610169610164366004610b11565b6103c6565b60405190151581526020015b60405180910390f35b34801561018a57600080fd5b5061019460025481565b604051908152602001610175565b3480156101ae57600080fd5b506101c26101bd366004610b5a565b61045f565b005b3480156101d057600080fd5b506101946101df366004610b5a565b60009081526020819052604090206001015490565b6101c2610202366004610b8f565b610470565b34801561021357600080fd5b506101c2610222366004610b5a565b610562565b34801561023357600080fd5b506101c2610242366004610bb9565b610573565b34801561025357600080fd5b506101c2610262366004610bb9565b61059e565b34801561027357600080fd5b50600454610287906001600160a01b031681565b6040516001600160a01b039091168152602001610175565b6101c26102ad366004610be5565b6105ef565b3480156102be57600080fd5b506101c26106c9565b3480156102d357600080fd5b506006546101699060ff1681565b3480156102ed57600080fd5b506101696102fc366004610bb9565b6000918252602082815260408084206001600160a01b0393909316845291905290205460ff1690565b34801561033157600080fd5b5061019460015481565b34801561034757600080fd5b50610194600081565b34801561035c57600080fd5b5061019460055481565b34801561037257600080fd5b506101c2610381366004610b5a565b6106e4565b34801561039257600080fd5b506101c26103a1366004610bb9565b6106f5565b3480156103b257600080fd5b50600354610287906001600160a01b031681565b60007fffffffff0000000000000000000000000000000000000000000000000000000082167f7965db0b00000000000000000000000000000000000000000000000000000000148061045957507f01ffc9a7000000000000000000000000000000000000000000000000000000007fffffffff000000000000000000000000000000000000000000000000000000008316145b92915050565b600061046a8161071a565b50600555565b80610479610724565b6104839190610c00565b3410156104d75760405162461bcd60e51b815260206004820181905260248201527f4552433732314d696e7465723a20696e73756666696369656e742076616c756560448201526064015b60405180910390fd5b6003546040517f4bc962480000000000000000000000000000000000000000000000000000000081526001600160a01b0384811660048301526024820184905290911690634bc9624890604401600060405180830381600087803b15801561053e57600080fd5b505af1158015610552573d6000803e3d6000fd5b5050505061055e610818565b5050565b600061056d8161071a565b50600255565b60008281526020819052604090206001015461058e8161071a565b6105988383610978565b50505050565b6001600160a01b03811633146105e0576040517f6697b23200000000000000000000000000000000000000000000000000000000815260040160405180910390fd5b6105ea8282610a22565b505050565b6105f7610724565b3410156106465760405162461bcd60e51b815260206004820181905260248201527f4552433732314d696e7465723a20696e73756666696369656e742076616c756560448201526064016104ce565b6003546040517f40d097c30000000000000000000000000000000000000000000000000000000081526001600160a01b038381166004830152909116906340d097c390602401600060405180830381600087803b1580156106a657600080fd5b505af11580156106ba573d6000803e3d6000fd5b505050506106c6610818565b50565b60006106d48161071a565b506006805460ff19166001179055565b60006106ef8161071a565b50600155565b6000828152602081905260409020600101546107108161071a565b6105988383610a22565b6106c68133610aa5565b600554600480546040517f70a082310000000000000000000000000000000000000000000000000000000081523392810192909252600092916001600160a01b03909116906370a0823190602401602060405180830381865afa15801561078f573d6000803e3d6000fd5b505050506040513d601f19601f820116820180604052508101906107b39190610c25565b106107bf575060015490565b60065460ff166108115760405162461bcd60e51b815260206004820152601160248201527f796f752061726520746f6f206561726c7900000000000000000000000000000060448201526064016104ce565b5060025490565b4773940d162f72bba2bfb9b88bc80a2cd42e9819d39f6108fc606461083e846046610c00565b6108489190610c3e565b6040518115909202916000818181858888f19350505050158015610870573d6000803e3d6000fd5b5073152d26e87155f56e5f686287690e33df9c23aefc6108fc6064610896846014610c00565b6108a09190610c3e565b6040518115909202916000818181858888f193505050501580156108c8573d6000803e3d6000fd5b507351660a105b84fc9c9dfdea1285f6649f2d482c456108fc60646108ee846005610c00565b6108f89190610c3e565b6040518115909202916000818181858888f19350505050158015610920573d6000803e3d6000fd5b5073a9a3266f73d629c19189f461ac8ca42801b2288c6108fc6064610946846005610c00565b6109509190610c3e565b6040518115909202916000818181858888f1935050505015801561055e573d6000803e3d6000fd5b6000828152602081815260408083206001600160a01b038516845290915281205460ff16610a1a576000838152602081815260408083206001600160a01b03861684529091529020805460ff191660011790556109d23390565b6001600160a01b0316826001600160a01b0316847f2f8788117e7eff1d82e926ec794901d17c78024a50270940304540a733656f0d60405160405180910390a4506001610459565b506000610459565b6000828152602081815260408083206001600160a01b038516845290915281205460ff1615610a1a576000838152602081815260408083206001600160a01b0386168085529252808320805460ff1916905551339286917ff6391f5c32d9c69d2a47ea670b442974b53935d1edc7fd64eb21e047a839171b9190a4506001610459565b6000828152602081815260408083206001600160a01b038516845290915290205460ff1661055e576040517fe2517d3f0000000000000000000000000000000000000000000000000000000081526001600160a01b0382166004820152602481018390526044016104ce565b600060208284031215610b2357600080fd5b81357fffffffff0000000000000000000000000000000000000000000000000000000081168114610b5357600080fd5b9392505050565b600060208284031215610b6c57600080fd5b5035919050565b80356001600160a01b0381168114610b8a57600080fd5b919050565b60008060408385031215610ba257600080fd5b610bab83610b73565b946020939093013593505050565b60008060408385031215610bcc57600080fd5b82359150610bdc60208401610b73565b90509250929050565b600060208284031215610bf757600080fd5b610b5382610b73565b808202811582820484141761045957634e487b7160e01b600052601160045260246000fd5b600060208284031215610c3757600080fd5b5051919050565b600082610c5b57634e487b7160e01b600052601260045260246000fd5b50049056fea264697066735822122029be98cc31e7893f15705d1bf50c20a53c0eb42d27b70f4584dada081106263664736f6c63430008180033",
  "linkReferences": {},
  "deployedLinkReferences": {}
}